:020000040800F2
:100000000010002031070008000000000000000080
:100010001508000815080008150800080000000071
:1000200000000000000000000000000015080008AB
:100030001508000800000000150800083D0400082D
:10004000150800081508000815080008150800081C
:10005000150800081508000815080008150800080C
:1000600015080008150800081508000815080008FC
:1000700015080008150800081508000815080008EC
:1000800015080008150800081508000815080008DC
:1000900015080008150800081508000815080008CC
:1000A00015080008150800081508000815080008BC
:1000B00015080008150800081508000815080008AC
:1000C000150800081508000815080008150800089C
:1000D000150800081508000815080008150800088C
:1000E00015080008150800081508000800000000A1
:1000F0000000000000000000000000000000000000
:1001000000000000000000005FF808F180B483B038
:1001100000AF03463960FB7197F90730002B10DA06
:100120004EF60053CEF20003FA7902F00F02A2F16C
:1001300004013A68D2B24FEA0212D2B20B441A76E4
:100140000DE04EF20013CEF2000397F907103A6863
:10015000D2B24FEA0212D2B20B4483F8002307F165
:100160000C07BD4680BC704780B582B000AF786098
:100170007A686FF07F439A4202D94FF0010322E080
:100180004EF21003CEF200037A6822F07F4202F1B1
:10019000FF325A604FF0FF304FF00F0140F20D1365
:1001A000C0F6000398474EF21003CEF200034FF062
:1001B00000029A604EF21003CEF200034FF00702E5
:1001C0001A604FF00003184607F10807BD4680BDCE
:1001D00080B500AF40F20003C2F200031B68022B9F
:1001E00010D0032B4AD0012B40F0838040F6004012
:1001F000C4F201004FF0200141F21903C0F60003E0
:10020000984785E040F20803C2F200031B6803F13F
:10021000010240F20803C2F200031A6040F2080330
:10022000C2F200031B68B3F57A6F0BD140F60040B1
:10023000C4F201004FF0200141F23503C0F6000383
:10024000984765E040F20803C2F200031A6849F6D5
:1002500040439A4259DD40F60040C4F201004FF09D
:10026000200141F21903C0F60003984740F2080349
:10027000C2F200034FF001021A6049E040F20803A5
:10028000C2F200031B6803F1010240F20803C2F24C
:1002900000031A6040F20803C2F200031B68B3F5C2
:1002A000FA6F0BD140F60040C4F201004FF020017C
:1002B00041F23503C0F60003984729E040F20803F5
:1002C000C2F200031B68B3F57A6F20DD40F60040F0
:1002D000C4F201004FF0200141F21903C0F60003FF
:1002E000984740F20803C2F200034FF001021A607F
:1002F0000EE040F60040C4F201004FF0200141F250
:100300003503C0F60003984702E000BF00E000BFDD
:1003100080BD00BF80B500AF40F21973C0F6000386
:10032000984703461A4640F20403C2F200031A60DB
:1003300040F20403C2F200031A6840F674139A42B2
:1003400007DD40F20003C2F200034FF001021A6021
:100350001FE040F20403C2F200031B68B3F5DC6F38
:1003600007DD40F20003C2F200034FF002021A6000
:100370000FE040F20403C2F200031A6840F24C435B
:100380009A4206DD40F20003C2F200034FF003027E
:100390001A6080BD80B500AF40F21003C2F20003C6
:1003A0001B6803F1010240F21003C2F200031A605D
:1003B00040F21003C2F200031B68012B04D140F28B
:1003C0001533C0F60003984740F21003C2F2000351
:1003D0001B68022B11D140F20003C2F200031B681C
:1003E000012B0AD040F60000C4F201004FF48071E6
:1003F00041F21903C0F60003984740F21003C2F21D
:1004000000031B68282B18D140F21003C2F200032E
:100410004FF000021A6040F20003C2F200031B68B2
:10042000002B0AD040F60000C4F201004FF48071A6
:1004300041F23503C0F60003984780BD80B500AF98
:1004400040F29533C0F60003984740F2D113C0F64E
:100450000003984780BD00BF80B500AF40F29943CC
:10046000C0F60003984740F27153C0F60003984766
:100470004FF4167040F26913C0F600039847034624
:10048000002B00D0FEE780BD80B500AF40F259439D
:10049000C0F600039847FEE780B582B000AF40F297
:1004A0000D204FF0010141F2ED03C0F60003984723
:1004B0004FF000504FF0010141F24513C0F6000328
:1004C00098474FF00103BB804FF00003FB7107F129
:1004D000040340F60000C4F20100194640F65963D7
:1004E000C0F6000398474FF48073BB804FF00303BE
:1004F000BB714FF01003FB7107F1040340F60000DD
:10050000C4F20100194640F65963C0F6000398474B
:100510004FF02003BB804FF00303BB714FF010037B
:10052000FB7107F1040340F60040C4F201001946D4
:1005300040F65963C0F60003984740F60000C4F245
:1005400001004FF4807141F23503C0F60003984773
:1005500040F60040C4F201004FF0200141F23503A3
:10056000C0F60003984707F10807BD4680BD00BFED
:1005700080B590B000AF4FF4404041F25103C0F657
:10058000000398474FF001004FF0010141F295033D
:10059000C0F60003984740F20800C4F2020041F29E
:1005A0009D13C0F60003984742F24C43C4F2010386
:1005B0007B6140F21403C2F20003BB614FF0000301
:1005C000FB614FF001033B624FF000037B624FF091
:1005D0000003BB624FF48073FB624FF400633B6324
:1005E0004FF020037B634FF40053BB634FF00003D5
:1005F000FB6307F1140340F20800C4F2020019463D
:1006000041F2B933C0F60003984740F20800C4F243
:1006100002004FF0010141F24943C0F60003984740
:100620004FF000033B604FF001033B714FF00103BB
:100630007B714FF46023BB604FF00003FB604FF011
:1006400001033B743B4642F20040C4F201001946EC
:1006500040F67123C0F60003984742F20040C4F20E
:1006600001004FF000014FF001024FF0050340F68A
:10067000894CC0F6000CE04742F20040C4F2010091
:100680004FF0010140F66933C0F60003984742F28B
:100690000040C4F201004FF0010140F63133C0F6D2
:1006A0000003984742F20040C4F2010040F6A13333
:1006B000C0F60003984742F20040C4F2010040F641
:1006C000C133C0F6000398470346002BF3D142F232
:1006D0000040C4F2010040F6F933C0F60003984729
:1006E00042F20040C4F2010040F61943C0F6000394
:1006F00098470346002BF3D142F20040C4F20100B8
:100700004FF0010140F65143C0F60003984707F14E
:100710004007BD4680BD00BF80B400AF40F2140367
:10072000C2F200031B681846BD4680BC704700BF7C
:10073000684620F007018D4681B583B000AF4FF0C9
:1007400000037B6003E07B6803F101037B607A6850
:100750004AF21F13C0F207039A42F4D940F295738C
:10076000C0F60003984740F61D03C0F60003984703
:1007700040F20003C0F200034FF00060194641F25E
:100780008143C0F60003984740F28943C0F6000356
:100790009847FEE780B483B000AF41F2B043C0F6A3
:1007A00000033B6040F20003C2F200037B603A6842
:1007B0007B689A4213D00BE03B681A687B681A602A
:1007C0007B6803F104037B603B6803F104033B6037
:1007D0007A6840F21003C2F200039A42ECD340F26E
:1007E0001003C2F200037B6007E07B684FF0000259
:1007F0001A607B6803F104037B607A6840F2180397
:10080000C2F200039A42F0D307F10C07BD4680BC48
:10081000704700BF80B400AFFEE700BF80B500AFF7
:1008200041F20003C4F2020341F20002C4F20202E8
:10083000126842F001021A6041F20002C4F20202A0
:1008400041F20003C4F20203596840F20003CFF6FC
:10085000FF0301EA0303536041F20003C4F2020301
:1008600041F20002C4F20202126822F0847222F401
:1008700080321A6041F20003C4F2020341F2000226
:10088000C4F20202126822F480221A6041F20003CC
:10089000C4F2020341F20002C4F20202526822F4DE
:1008A000FE025A6041F20003C4F202034FF41F0239
:1008B0009A6040F6C103C0F60003984780BD00BFB0
:1008C00080B500AF40F6D103C0F60003984780BD65
:1008D00080B483B000AF4FF000037B604FF00003A3
:1008E0003B6041F20003C4F2020341F20002C4F291
:1008F0000202126842F480321A6041F20003C4F22C
:1009000002031B6803F400333B607B6803F10103BF
:100910007B603B68002B03D17B68B3F5A06FECD103
:1009200041F20003C4F202031B6803F40033002BFE
:1009300003D04FF001033B6002E04FF000033B6047
:100940003B68012B40F08E8042F20003C4F20203A8
:1009500042F20002C4F20202126842F010021A606F
:1009600042F20003C4F2020342F20002C4F20202A5
:10097000126822F003021A6042F20003C4F202037A
:1009800042F20002C4F2020212681A6041F200034D
:10099000C4F2020341F20002C4F2020252685A6039
:1009A00041F20003C4F2020341F20002C4F2020267
:1009B00052685A6041F20003C4F2020341F200029D
:1009C000C4F2020252685A6041F20003C4F2020308
:1009D00041F20002C4F20202526822F47C125A6010
:1009E00041F20003C4F2020341F20002C4F2020227
:1009F000526842F498125A6041F20003C4F20203B2
:100A000041F20002C4F20202126842F080721A60DF
:100A100041F20003C4F202031B6803F00073002BD1
:100A2000F6D041F20003C4F2020341F20002C4F224
:100A30000202526822F003025A6041F20003C4F23B
:100A4000020341F20002C4F20202526842F00202C2
:100A50005A6041F20003C4F202035B6803F00C0326
:100A6000082BF6D107F10C07BD4680BC704700BFCC
:100A700080B485B000AF786039604FF00003BB6090
:100A80004FF00003FB737B685B68BB60BB6823F4BB
:100A9000702323F48073BB603B681A683B681B7942
:100AA0004FEA032342EA0303BA6842EA0303BB6046
:100AB0007B68BA685A607B689B68BB60BA684FF213
:100AC000FD73CFF6F17302EA0303BB603B68DA689B
:100AD0003B689B6842EA03023B685B794FEA430349
:100AE00042EA0303BA6842EA0303BB607B68BA6860
:100AF0009A607B68DB6ABB60BB6823F47003BB60F1
:100B00003B681B7C03F1FF33DAB2FB7B42EA030351
:100B1000FB73FB7B4FEA0353BA6842EA0303BB60F3
:100B20007B68BA68DA6207F11407BD4680BC70477B
:100B300080B483B000AF78600B46FB70FB78002B6D
:100B400006D07B689B6843F001027B689A6005E0F1
:100B50007B689B6823F001027B689A6007F10C07B1
:100B6000BD4680BC704700BF80B483B000AF7860E2
:100B70000B46FB70FB78002B06D07B689B6843F428
:100B800080727B689A6005E07B689B6823F48072C2
:100B90007B689A6007F10C07BD4680BC704700BFB8
:100BA00080B483B000AF78607B689B6843F0080234
:100BB0007B689A6007F10C07BD4680BC704700BF98
:100BC00080B485B000AF78604FF00003FB737B68A2
:100BD0009B6803F00803002B03D04FF00103FB7365
:100BE00002E04FF00003FB73FB7B184607F114078C
:100BF000BD4680BC704700BF80B483B000AF786052
:100C00007B689B6843F004027B689A6007F10C07DD
:100C1000BD4680BC704700BF80B485B000AF78602F
:100C20004FF00003FB737B689B6803F00403002B09
:100C300003D04FF00103FB7302E04FF00003FB739E
:100C4000FB7B184607F11407BD4680BC704700BF08
:100C500080B483B000AF78600B46FB70FB78002B4C
:100C600006D07B689B6843F4A0027B689A6005E02D
:100C70007B689B6823F4A0027B689A6007F10C07ED
:100C8000BD4680BC704700BF80B485B000AF7860BF
:100C9000F970BA707B704FF00003BB604FF0000337
:100CA000FB60FB78092B29D97B68DB68BB60FA788D
:100CB00013464FEA43031344A3F11E034FF0070208
:100CC00002FA03F3FB60FB686FEA0303BA6802EA07
:100CD0000303BB607978FA7813464FEA4303134461
:100CE000A3F11E0301FA03F3FB60BA68FB6842EA52
:100CF0000303BB607B68BA68DA6024E07B681B6929
:100D0000BB60FA7813464FEA430313444FF00702DF
:100D100002FA03F3FB60FB686FEA0303BA6802EAB6
:100D20000303BB607978FA7813464FEA4303134410
:100D300001FA03F3FB60BA68FB6842EA0303BB6095
:100D40007B68BA681A61BB78062B29D87B685B6B15
:100D5000BB60BB7803F1FF3213464FEA83031344B1
:100D60004FF01F0202FA03F3FB60FB686FEA030314
:100D7000BA6802EA0303BB60F978BB7803F1FF327B
:100D800013464FEA8303134401FA03F3FB60BA6886
:100D9000FB6842EA0303BB607B68BA685A6355E0AC
:100DA000BB780C2B29D87B681B6BBB60BA781346C9
:100DB0004FEA83031344A3F123034FF01F0202FA07
:100DC00003F3FB60FB686FEA0303BA6802EA0303FC
:100DD000BB60F978BA7813464FEA83031344A3F152
:100DE000230301FA03F3FB60BA68FB6842EA0303DA
:100DF000BB607B68BA681A6328E07B68DB6ABB600B
:100E0000BA7813464FEA83031344A3F141034FF02A
:100E10001F0202FA03F3FB60FB686FEA0303BA6880
:100E200002EA0303BB60F978BA7813464FEA8303FA
:100E30001344A3F1410301FA03F3FB60BA68FB68B2
:100E400042EA0303BB607B68BA68DA6207F1140701
:100E5000BD4680BC704700BF80B489B000AF7860E9
:100E600039604FF00003BB604FF00003FB604FF0B0
:100E700000033B614FF000037B614FF00003BB6157
:100E80004FF00003FB613B68DB7803F00F03BB60AE
:100E90003B68DB7803F01003002B05D03B689B78A0
:100EA000BA6842EA0303BB603B681B8803F0FF0398
:100EB000002B51D07B681B68BB614FF000033B6186
:100EC00044E03B694FF0010202FA03F37B613B68A7
:100ED0001B881A467B6902EA0303FB60FA687B6998
:100EE0009A422FD13B694FEA83037B617B694FF0C4
:100EF0000F0202FA03F3FB61FB696FEA0303BA69AD
:100F000002EA0303BB617B69BA6802FA03F3BA69B8
:100F100042EA0303BB613B68DB78282B07D13B69BE
:100F20004FF0010202FA03F27B685A610AE03B6863
:100F3000DB78482B06D13B694FF0010202FA03F23D
:100F40007B681A613B6903F101033B613B69072B35
:100F5000B7D97B68BA691A603B681B88FF2B56D9E2
:100F60007B685B68BB614FF000033B6149E03B6914
:100F700003F108034FF0010202FA03F37B613B68BF
:100F80001B881A467B6902EA0303FB60FA687B69E7
:100F90009A4232D13B694FEA83037B617B694FF010
:100FA0000F0202FA03F3FB61FB696FEA0303BA69FC
:100FB00002EA0303BB617B69BA6802FA03F3BA6908
:100FC00042EA0303BB613B68DB78282B08D13B690D
:100FD00003F108034FF0010202FA03F27B685A6141
:100FE0003B68DB78482B08D13B6903F108034FF0DD
:100FF000010202FA03F27B681A613B6903F1010303
:101000003B613B69072BB2D97B68BA695A6007F12B
:101010002407BD4680BC704780B483B000AF7860C1
:101020000B467B807A887B681A6107F10C07BD4606
:1010300080BC704780B483B000AF78600B467B8083
:101040007A887B685A6107F10C07BD4680BC7047FF
:1010500080B485B000AF78604FF00003FB6041F2D0
:101060000003C4F202035B68FB60FB6823F44043A7
:10107000FB60FA687B6842EA0303FB6041F200030D
:10108000C4F20203FA685A6007F11407BD4680BC37
:10109000704700BF80B483B000AF78600B46FB7030
:1010A000FB78002B0DD041F20003C4F2020341F2A1
:1010B0000002C4F2020251697A6841EA02025A61EE
:1010C0000EE041F20003C4F2020341F20002C4F256
:1010D000020251697A686FEA020201EA02025A6169
:1010E00007F10C07BD4680BC704700BF80B483B0D9
:1010F00000AF78600B46FB70FB78002B0DD041F2FF
:101100000003C4F2020341F20002C4F20202916938
:101110007A6841EA02029A610EE041F20003C4F2E9
:10112000020341F20002C4F2020291697A686FEA96
:10113000020201EA02029A6107F10C07BD4680BC77
:10114000704700BF80B483B000AF78600B46FB707F
:10115000FB78002B0DD041F20003C4F2020341F2F0
:101160000002C4F20202D1697A6841EA0202DA613D
:101170000EE041F20003C4F2020341F20002C4F2A5
:101180000202D1697A686FEA020201EA0202DA61B8
:1011900007F10C07BD4680BC704700BF80B483B028
:1011A00000AF78607B681B6823F001027B681A60DF
:1011B0007B684FF000021A607B684FF000025A60B3
:1011C0007B684FF000029A607B684FF00002DA60A3
:1011D0007A6840F20803C4F202039A420CD140F24A
:1011E0000003C4F2020340F20002C4F20202526899
:1011F00042F00F025A60DAE07A6840F21C03C4F24F
:1012000002039A420CD140F20003C4F2020340F2FE
:101210000002C4F20202526842F0F0025A60C6E0D4
:101220007A6840F23003C4F202039A420CD140F2D1
:101230000003C4F2020340F20002C4F20202526848
:1012400042F470625A60B2E07A6840F24403C4F239
:1012500002039A420CD140F20003C4F2020340F2AE
:101260000002C4F20202526842F470425A609EE0E8
:101270007A6840F25803C4F202039A420CD140F259
:101280000003C4F2020340F20002C4F202025268F8
:1012900042F470225A608AE07A6840F26C03C4F229
:1012A00002039A420CD140F20003C4F2020340F25E
:1012B0000002C4F20202526842F470025A6076E000
:1012C0007A6840F28003C4F202039A420CD140F2E1
:1012D0000003C4F2020340F20002C4F202025268A8
:1012E00042F070625A6062E07A6840F20843C4F2E9
:1012F00002039A420CD140F20043C4F2020340F2CE
:101300000042C4F20202526842F00F025A604EE0FC
:101310007A6840F21C43C4F202039A420CD140F2B4
:101320000043C4F2020340F20042C4F202025268D7
:1013300042F0F0025A603AE07A6840F23043C4F278
:1013400002039A420CD140F20043C4F2020340F27D
:101350000042C4F20202526842F470625A6026E00F
:101360007A6840F24443C4F202039A420CD140F23C
:101370000043C4F2020340F20042C4F20202526887
:1013800042F470425A6012E07A6840F25843C4F264
:1013900002039A420BD140F20043C4F2020340F22E
:1013A0000042C4F20202526842F470225A6007F10D
:1013B0000C07BD4680BC704780B485B000AF786034
:1013C00039604FF00003FB607B681B68FB60FB68C3
:1013D00023F4FE4323F0F003FB603B689A683B680C
:1013E0001B6A42EA03023B681B6942EA03023B684C
:1013F0005B6942EA03023B689B6942EA03023B687D
:10140000DB6942EA03023B685B6A42EA03023B682B
:101410009B6A42EA0303FA6842EA0303FB607B68C3
:10142000FA681A603B68DA687B685A603B681A6839
:101430007B689A603B685A687B68DA6007F114073A
:10144000BD4680BC704700BF80B483B000AF7860F9
:101450000B46FB70FB78002B06D07B681B6843F0C3
:1014600001027B681A6005E07B681B6823F00102BB
:101470007B681A6007F10C07BD4680BC704700BF4F
:1014800080B483B000AF786039604EF60053CEF27E
:1014900000033A6822F0604222F07F02796842EA53
:1014A00001029A6007F10C07BD4680BC704700BF7F
:1014B00001000000400704000100000000000000DF
:0400000508000731B7
:00000001FF
